:02000000702866
:0E0006008312031321088A00200882000800DC
:10001400831203132308003A031D15288030220499
:10002400840080011A28803022048400FF3080007C
:020034000800C2
:1000360083120313220884000008F2002308F1004B
:100046000130F000710803192C28F00D7010FF3EE6
:0E005600262870087205F3007308F0000800F9
:10006400831203132308F1000130F000710803190F
:100074003F28F00D7010FF3E39287009F100220866
:1000840084000008F0007108F0052208840070085C
:0400940080000800E0
:10009800831203132308F0000130F10070080319DC
:1000A8005928F10D7110FF3E5328220884000008DA
:1000B800F0007108F004220884007008800008002D
:1000C80003208A110A128000840AA00A0319A10ACF
:0800D800F003031D6428080079
:1000E000073083120313A200A3010A200630A200E6
:1000F0000130A3000A200630A2000330A3001B2019
:100100007008031989280730A2000430A3003220A8
:100110008E280730A2000430A3004C207B288F28B3
:02400E004A2F37
:00000001FF
