S0100000377365676D656E742E73726563EA
S11300000C942A000C9447000C9447000C9447006D
S11300100C9447000C9447000C9447000C94470040
S11300200C9447000C9447000C9447000C94470030
S11300300C9447000C9447000C9447000C94470020
S11300400C9447000C9447000C9447000C94470010
S11300500C94470011241FBECFE5D8E0DEBFCDBF0E
S113006010E0A0E6B0E0EEEBF0E002C005900D92E7
S1130070A036B107D9F710E0A0E6B0E001C01D92A8
S1130080A036B107E1F70E9449000C945D000C947E
S113009000008FEF84BB80E090E001C0892F85BB16
S11300A02FEF39E648E1215030404040E1F700C0ED
S11100B000008F5F8A3099F7F1CFF894FFCFEC
S9030000FC
