:100000000C942A000C9447000C9447000C94470071
:100010000C9447000C9447000C9447000C94470044
:100020000C9447000C9447000C9447000C94470034
:100030000C9447000C9447000C9447000C94470024
:100040000C9447000C9447000C9447000C94470014
:100050000C94470011241FBECFE5D8E0DEBFCDBF12
:1000600010E0A0E6B0E0E8E0F2E002C005900D92FA
:10007000A036B107D9F710E0A0E6B0E001C01D92AC
:10008000A036B107E1F70E9491000C9402010C9494
:1000900000008430910551F18530910568F481307C
:1000A0009105D1F181309105A0F182309105C1F027
:1000B0008330910569F517C08730910501F18830CB
:1000C000910538F485309105A1F08630910501F550
:1000D00013C088309105B1F089309105C9F415C07D
:1000E0002BE530E01BC02FE430E018C026E630E0FE
:1000F00015C02DE630E012C02DE730E00FC027E03C
:1001000030E00CC02FE730E009C02FE630E006C039
:1001100008952FE330E002C026E030E0822F932FD5
:1001200008958FEF84BB87E081BB15BA1AE0C0E069
:10013000D0E00F2EFAE0EF2EFF24F02D0F2EF4E684
:100140008F2E9924F02D662477240F2EFAE0AF2EFF
:10015000F02D01C0E301CE01B7010E94EE006B015A
:1001600090E00E944900B82EC601B7010E94EE003F
:1001700090E00E944900082FCE01B4010E94EE00D9
:10018000CB01B7010E94EE0090E00E944900B5BA91
:10019000909AEFE1FEE43197F1F700C000009098EB
:1001A00005BB919AEFE1FEE43197F1F700C0000042
:1001B000919885BB929A8FE19EE40197F1F700C078
:1001C00000009298112339F2115011F421961A2D42
:1001D00093E0C83ED90708F0BDCFBDCFAA1BBB1B1B
:1001E00051E107C0AA1FBB1FA617B70710F0A61B37
:1001F000B70B881F991F5A95A9F780959095BC0158
:08020000CD010895F894FFCF31
:00000001FF
