S0150000696E746572727570745F6578312E73726563B5
S11300000C942A000C9467000C9447000C9447004D
S11300100C9447000C9447000C9447000C94470040
S11300200C9447000C9447000C9447000C94470030
S11300300C9447000C9447000C9447000C94470020
S11300400C9447000C9447000C9447000C94470010
S11300500C94470011241FBECFE5D8E0DEBFCDBF0E
S113006010E0A0E6B0E0E6E5F1E002C005900D92F4
S1130070A036B107D9F710E0A0E6B0E001C01D92A8
S1130080A036B107E1F70E9449000C94A9000C9432
S113009000008FEF84BB81B3847081BB81E085BB9A
S11300A080E48BBF15BE789491E085B3803811F459
S11300B095BB03C085B3880F85BB2FEF33ED40E3B9
S11300C0215030404040E1F700C00000EECF1F92C5
S11300D00F920FB60F9211242F933F934F935F9378
S11300E06F937F938F939F93AF93BF934FEF59E693
S11300F068E1415050406040E1F700C0000035B372
S113010085E090E02FEF25BB4FEF59E668E14150C1
S113011050406040E1F700C0000015BA4FEF59E6C7
S113012068E1415050406040E1F700C00000019791
S113013051F735BBBF91AF919F918F917F916F9193
S11301405F914F913F912F910F900FBE0F901F9091
S10901501895F894FFCF9E
S9030000FC
