:100000000C942A000C9447000C9447000C94470071
:100010000C9447000C9447000C9447000C94470044
:100020000C9447000C9447000C9447000C94470034
:100030000C9447000C9447000C9447000C94470024
:100040000C9447000C9447000C9447000C94470014
:100050000C94470011241FBECFE5D8E0DEBFCDBF12
:1000600010E0A0E6B0E0E0E2F2E002C005900D9200
:10007000A036B107D9F710E0A0E6B0E001C01D92AC
:10008000A036B107E1F70E94F6000C940E010C9423
:100090000000613029F4E82FF0E08FEF81830895AC
:1000A000E82FF0E011820895413079F4E82FF0E074
:1000B000218181E090E0AC0102C0440F551F6A9598
:1000C000E2F7BA01622B61830895E82FF0E0218105
:1000D00081E090E0AC0102C0440F551F6A95E2F741
:1000E000BA016095622361830895E82FF0E02281D0
:1000F00081E090E0AC0102C0440F551F6A95E2F721
:10010000BA016095622362830895E82FF0E02281AE
:1001100081E090E0AC0102C0440F551F6A95E2F700
:10012000BA01622B62830895E82FF0E0228181E01A
:1001300090E0AC0102C0440F551F6A95E2F7BA0186
:10014000622762830895E82FF0E062830895CF93D9
:10015000DF930F92CDB7DEB7E82FF0E0808189837F
:1001600089810F90DF91CF910895442379F4E82F8E
:10017000F0E0228181E090E0AC0102C0440F551F05
:100180006A95E2F7BA01622B62830895E82FF0E0E6
:10019000228181E090E0AC0102C0440F551F6A95B6
:1001A000E2F7BA016095622362830895CF93DF93EB
:1001B0000F92CDB7DEB7E82FF0E08081882371F091
:1001C00081E090E09C0102C0220F331F6A95E2F7A4
:1001D0002115310529F480E090E002C080E090E034
:1001E000898389810F90DF91CF91089583E361E046
:1001F0000E94490086E360E00E94490086E363E0D4
:100200000E94D600882329F083E364E00E947500F1
:10021000F5CF83E364E00E948500F0CFF894FFCF30
:00000001FF
