S01200004C43445F4472697665722E7372656374
S11300000C942A000C9447000C9447000C9447006D
S11300100C9447000C9447000C9447000C94470040
S11300200C9447000C9447000C9447000C94470030
S11300300C9447000C9447000C9447000C94470020
S11300400C9447000C9447000C9447000C94470010
S11300500C94470011241FBECFE5D8E0DEBFCDBF0E
S113006010E0A0E6B0E0E6EAF3E002C005900D92ED
S1130070A636B107D9F710E0A6E6B0E001C01D929C
S1130080A636B107E1F70E94C8010C94D1010C9483
S11300900000613029F4E82FF0E08FEF81830895A8
S11300A0E82FF0E011820895413079F4E82FF0E070
S11300B0218181E090E0AC0102C0440F551F6A9594
S11300C0E2F7BA01622B61830895E82FF0E0218101
S11300D081E090E0AC0102C0440F551F6A95E2F73D
S11300E0BA016095622361830895E82FF0E02281CC
S11300F081E090E0AC0102C0440F551F6A95E2F71D
S1130100BA016095622362830895E82FF0E02281AA
S113011081E090E0AC0102C0440F551F6A95E2F7FC
S1130120BA01622B62830895E82FF0E0228181E016
S113013090E0AC0102C0440F551F6A95E2F7BA0182
S1130140622762830895E82FF0E062830895CF93D5
S1130150DF930F92CDB7DEB7E82FF0E0808189837B
S113016089810F90DF91CF910895442379F4E82F8A
S1130170F0E0228181E090E0AC0102C0440F551F01
S11301806A95E2F7BA01622B62830895E82FF0E0E2
S1130190228181E090E0AC0102C0440F551F6A95B2
S11301A0E2F7BA016095622362830895CF93DF93E7
S11301B00F92CDB7DEB7E82FF0E08081882371F08D
S11301C081E090E09C0102C0220F331F6A95E2F7A0
S11301D02115310529F480E090E002C080E090E030
S11301E0898389810F90DF91CF910895CF93C82F90
S11301F086E362E00E9485008FEC97E00197F1F7B7
S113020000C000006C2F607F83E30E94A30086E39C
S113021062E00E94850086E363E00E948500AFEC03
S1130220B7E01197F1F700C0000086E363E00E9495
S113023075008FEF90E7A2E081509040A040E1F775
S113024000C000006C2F6295607F83E30E94A300CE
S113025086E363E00E948500AFECB7E01197F1F705
S113026000C0000086E363E00E9475008FEF90E712
S1130270A2E081509040A040E1F700C00000CF917F
S11302800895CF93C82F682F607F83E30E94A30053
S113029086E362E00E94750086E363E00E947500D5
S11302A08FEC97E00197F1F700C0000086E363E06C
S11302B00E9485008FEF90E7A2E081509040A0401B
S11302C0E1F700C000006C2F6295607F83E30E9419
S11302D0A30086E362E00E94750086E363E00E9467
S11302E08500AFECB7E01197F1F700C0000086E39A
S11302F063E00E9475008FEF90E7A2E08150904088
S1130300A040E1F700C00000CF91089583E361E0CD
S11303100E94490086E361E00E94490083E360E0B3
S11303200E94A30086E363E00E94750083E30E94B9
S1130330410182E30E94410188E20E9441018EE072
S11303400E94410181E00E9441018FEF93EDA0E3FF
S113035081509040A040E1F700C0000086E00E9478
S1130360410108950F931F93CF938C01FC01808169
S1130370882351F0C0E00E94F600CF5FF801EC0F33
S1130380F11D80818823B9F7CF911F910F910895B2
S11303900E94860180E690E00E94B20180E090E035
S10903A00895F894FFCF5C
S10903A66A616E610000B3
S9030000FC
